:100000000C94C2030C94FA030C94FA030C94FA03B4
:100010000C94FA030C94FA030C94FA030C94FA036C
:100020000C94FA030C94FA030C9410240C94CC2333
:100030000C940D250C94FA030C94FA030C94FA0317
:100040000C94FA030C94FA030C94FA030C943425E0
:100050000C94FA030C94E9240C94FA030C94FA031C
:100060000C94FA030C94FA030C94FA030C94FA031C
:100070000C94FA030C94FA030C94FA030C94FA030C
:100080000C94FA030C94FA030C94FA030C94FA03FC
:100090000C94FA030C94FA030C94FA030C94FA03EC
:1000A0000C94FA030C94FA030C94FA030763423697
:1000B000B79BD8A71A39685618AEBAAB558C1D3CF9
:1000C000B7CC5763BD6DEDFD753EF6177231BF00BD
:1000D0000000803F08000000BE922449123EABAAF7
:1000E000AA2ABECDCCCC4C3E00000080BEABAAAA52
:1000F000AA3E00000000BF000000803F000000009A
:1001000000084178D3BB4387D1133D190E3CC3BDD2
:100110004282AD2B3E68EC8276BED98FE1A93E4C7F
:1001200080EFFFBE01C4FF7F3F000000000005011B
:100130000980A101850319012AB700150126B7001E
:10014000950175108100C0050C0901A101850419F4
:10015000012AA002150126A002950175108100C098
:1001600005010906A1018506050719E029E7150023
:1001700025019508750181020507190029EF150071
:10018000250195F0750181020508190129059505DC
:1001900075019102950175039101C00660FF096127
:1001A000A1010962150026FF00952075088102094A
:1001B00063150026FF00952075089102C00501090E
:1001C00006A101050719E029E71500250195087525
:1001D0000181029501750881010507190029FF15A4
:1001E0000026FF00950675088100050819012905FC
:1001F000950575019102950175039101C0FD377A4E
:10020000585A000004E6D6B4460200210116000048
:1002100000742FE5A3E006DE01E35D003D8889C69A
:100220005436C3174FE4DD5EF185DD96F7E920DD36
:100230000161188DE758B65D0750028C16D03983DE
:100240002D31C8D0875CB2ECEA692C287A5DFE3E7D
:1002500069EC67726DB60A2D7C0B78C74680E001A9
:100260004E3A8894A5982A8E718F638FAC2C24B453
:1002700015D6FC08356C45B083E162D63AD40BB78D
:10028000FC4F4AD08761671102AD72F1D40E828FA4
:100290002C7F76391782AF7D4AC093BA1092E06303
:1002A000EC13FF4220EAABC60EE42499D7ABC7BBE0
:1002B000906DA68B3D2FF3528E933B3C2760873A7F
:1002C0007CCD438A7C882D37733CB3784CA86BA7D0
:1002D0003D0DA1663686FA4D3DBDB0281E43197E00
:1002E00078DE742D76A5827794583BF664E27CDB49
:1002F000FCBF6F5F0A34B3CD5D4EA70D1CC9304EF5
:100300009056C1857BEE549305C1BE6FB423D45380
:100310008F05AB666B9B8A09278A02AC8BA0F4EC35
:10032000D7A0DAF38C68987E9ECBB5D5AA271FDCC0
:10033000FEF5200683EB7208AE245773407A172629
:10034000054C065F2857B4E09CD5392F14D346E9F5
:10035000582DA0D64D22DFAFCCD236767682FBB0B8
:10036000ECFA016E6607CEC50B86ACCBD50420A097
:10037000F331508762E4D8B92D8EF7D04E93E87FE1
:100380006039DF9FCEA2F8B791A37ABA911FA33745
:100390002D2DC5B12AE2D178C4DFA36848900A6147
:1003A000D312AF8D82CC17ADDE2482EBC3463AC5A3
:1003B0005BBBB47084624BC6049F8193EFED6CCB42
:1003C000989677B088DA1B7DEB50013E0678A4053D
:1003D000DD2D64B49F02750255042FCFA1AE24A475
:1003E00067166CC47D1678EAC457847B67305E96C6
:1003F000F697747A24F3422018BC1ACD12A200009A
:1004000000E5D886DEC82A5BB00001FF03DF0D00DF
:10041000005D3FDE16B1C467FB0200000000045916
:100420005A00000000000000000000000000000072
:1004300000000000000000000000000000000000BC
:10044000001E001F002000210022002300240025A0
:10045000002600270014001A000800150017001CD1
:100460000018000C00120013000400160007000919
:10047000000A000B000D000E000F002800E1001D17
:10048000001B0006001900050011001000E3002AFF
:100490000001000100010001000100010001000154
:1004A0000001000100010001000100010001000144
:1004B0000001000100010001000100010001000134
:1004C0000001000100010001000100010001000124
:1004D0000001000100010001000100010001000114
:1004E0000001000100010001000100010001000104
:1004F00000010001000100010001000100010001F4
:1005000000010001000100010001000100010001E3
:1005100000010001000100010001000100010001D3
:1005200000010001000100010001000100010001C3
:1005300000010001000100010001000100010001B3
:1005400000010001000100010001000100010001A3
:100550000001000100010001000100010001000193
:100560000001000100010001000100010001000183
:100570000001000100010001000100010001000173
:1005800000010001003605250D0A0D0000020002E1
:10059000003205250D0A0D00000300010037052576
:1005A0000D0A0D0000040002001C05250D0A0D00B7
:1005B00007050001003805250D0A0D0000060002A0
:1005C000001E05250D0A0D00000700020034052558
:1005D0000D0A0D0000080001003905250D0A0D0067
:1005E00000120002003A05250D0A0D00001300025A
:1005F000003C05250D0A0D0000140001003E0525F4
:100600000D0A0D000015000000000086068512008E
:100610000009025B00030100A0FA090400000103C5
:100620000101000921110100012240000705810399
:100630000800010904010002030000000921110162
:1006400000012222000705820320000107050303A1
:10065000200001090402000103000000092111012A
:100660000001226D00070584032000011201000231
:1006700000000008630501000001010203011C03E2
:100680007600690061006C003A00660036003400B4
:10069000630032006200330063000000180344006E
:1006A0006900640061006B00740069006B002D003C
:1006B0003400300000001803430061006C00760035
:1006C00069006E0023003000350036003300000062
:1006D0000403090400000000000000000000000006
:1006E000000000000000000000000000000000000A
:1006F00000000000000000007E0F00D4FFFFFFC7D5
:100700000000007800000000000000002A2B2800F4
:1007100000000000000000000000000000000029B0
:10072000000000002C1E3420212224342627252EF0
:10073000362D3738271E1F20212223242526333328
:10074000362E37381F0405060708090A0B0C0D0E54
:100750000F101112131415161718191A1B1C1D2F20
:100760003130232D350405060708090A0B0C0D0E40
:100770000F101112131415161718191A1B1C1D2F00
:100780003130354C11241FBECFEFDAE0DEBFCDBFD4
:1007900004B603FE18C08091800690918106A09156
:1007A0008206B09183068730904BA740B04B59F436
:1007B0001092800610928106109282061092830693
:1007C000E0E0F8E3099513E0A0E0B1E0ECEEF5E637
:1007D00002C005900D92A43BB107D9F726E0A4EB27
:1007E000B3E001C01D92A038B207E1F70E94D826FD
:1007F0000C94D0320C940000CF92DF92EF92FF92D3
:10080000E0917F06EE2309F1E15088E0E802F00173
:100810001124E15CF94FC280D380E480F58020E0B0
:1008200030E0A901C701B6010E94192F18166CF417
:1008300080913E06811102C010923D06C701B601AB
:10084000FF90EF90DF90CF900895C12CD12C7601CE
:10085000F5CFE8EDF0E080818E7F80831092E2009A
:100860001092DA001092E100A0EEB0E08C9181606D
:100870008C9380818F77808319BCA7EDB0E08C9139
:100880008E7F8C9380818F7E80831092FC050895EB
:100890002091E4003091E50095E6A9012091EC005B
:1008A000822F817020FF06C08091E80080FF06C083
:1008B00080E008952091E80022FD1AC08091210671
:1008C000882389F0853089F08091EB0085FD0FC089
:1008D0002091E4003091E50042175307F9F291505E
:1008E000E1F684E0089582E0089583E0089581E0D0
:1008F0000895EF92FF920F931F93CF937C018B018A
:100900000E944804C82F811117C08091E80085FD1E
:100910000BC08091E8008E778093E8000E94480425
:10092000882399F3C82F08C0F70181917F01809334
:10093000F1000150110949F78C2FCF911F910F91B0
:10094000FF90EF9008958091230687FF13C0809158
:10095000E80082FF06C08091E8008B778093E80072
:1009600004C0809121068111F2CF08958091210663
:100970008823D9F38091E80080FFF8CF8091E800C8
:100980008E77ECCF982F9093E900242F762F50E0AC
:10099000891731F07091EC002091ED005091F0003A
:1009A00021FD07C09F5F973071F78093E90081E0D8
:1009B00008953091EB003E7F3093EB003091ED00D5
:1009C0003D7F3093ED003091EB0031603093EB00D0
:1009D0007093EC002093ED005093F0002091EE0016
:1009E00027FDE0CF80E00895B0E0A0E0EAEFF4E07A
:1009F0000C94062EC8EDD0E088818F7E8883E7EDC9
:100A0000F0E080818160808384E082BF81E0809318
:100A1000FC0588818E7F888302EE10E0F801108249
:100A20001092DA0081EEC82ED12CF6011082888156
:100A30008F77888388818068888388818F7D888389
:100A400019BC1092210610922206109220061092D4
:100A50001F0690EEE92EF12CF70180818B7F8083B9
:100A600088818160888342E060E080E00E94C20467
:100A7000F60180818E7F8083F80180818160808390
:100A8000808188608083F70180818E7F8083888168
:100A900080618883CDB7DEB7E8E00C94222EFC019C
:100AA0008091290690912A0686179707A0F0611574
:100AB000710529F49091E8009E779093E80090E00A
:100AC0006115710551F4911108C08091E80082FF11
:100AD00034C080E00895BC01F2CF809121068823C4
:100AE000C1F18530C1F18091E80083FD30C0809173
:100AF000E80082FDEACF8091E80080FFE1CF80919D
:100B0000F3002091F200382F6115710519F028309B
:100B1000310558F091E02830310509F090E020913E
:100B2000E8002E772093E800CBCF81918093F100ED
:100B3000615071092F5F3F4FE7CF809121068823D5
:100B400041F0853041F08091E80083FFBECF81E025
:100B5000089582E0089583E00895089508958091AE
:100B6000FE0508959C014FB7F8948091F30590918C
:100B7000F405A091F505B091F6054FBF821B930BCC
:100B800008952FB7F8946091F3057091F405809162
:100B9000F5059091F6052FBF08952FB7F894809131
:100BA000F3059091F405A091F505B091F6052FBFDE
:100BB0000895209126032223C9F02091F70527FFED
:100BC00015C0E62FE695E695E695EE31D8F4E80FE8
:100BD000F92FF11D677021E030E001C0220F6A9506
:100BE000EAF720958281282322830895FC0132961A
:100BF00008962191621303C0DF0111971C92E81738
:100C0000F907B9F708952091F0053091F1052817FB
:100C1000390771F09093F1058093F005E091EE05AE
:100C2000F091EF05309721F00084F185E02D0995D2
:100C300008952091EC053091ED052817390771F0E2
:100C40009093ED058093EC05E091EE05F091EF05B2
:100C5000309721F00680F781E02D09950895E09105
:100C6000EE05F091EF05309729F00190F081E02D2D
:100C70000995089580E00895452B39F0682381E0B7
:100C80006F3F09F080E08170089581E0FCCFDC01C6
:100C90006091E8058091E905962F891301C00895B8
:100CA000292F30E0F901EE0FFF1FE052FA4F40818B
:100CB00051814A175B07A1F487E08A9FA0018B9FAF
:100CC000500D112448555A4F81E0FA018483961340
:100CD000E6CF2F5F3F4F237033272093E805089519
:100CE0002F5F3F4F922F9370D8CF109245051092EF
:100CF0004405E8EAF5E08581811102C0148216827C
:100D0000379685E0E03EF807B1F70895B0E0A0E03F
:100D1000ECE8F6E00C94042E8FEF9FEF4430510581
:100D200008F469C04091F70541FB882780F990E0FD
:100D3000880F991F42FB002700F910E0000F111FD8
:100D4000000F111F802B912B40FBCC24C0F8D12C1D
:100D50008C299D2943FB222720F9C22FE0E0DE2FBA
:100D600053E0CC0FDD1F5A95E1F78C2B9D2B44FBF4
:100D7000AA27A0F9B0E0E4E0AA0FBB1FEA95E1F7CB
:100D80008A2B9B2B45FBEE27E0F9F0E0A5E0EE0F68
:100D9000FF1FAA95E1F78E2B9F2B46FB222720F9F8
:100DA00030E0B6E0220F331FBA95E1F7822B932B88
:100DB00047FB222720F930E03695322F222737953E
:100DC0002795822B932B2091F805322F3170F32E2B
:100DD000E82EF92A26952170B22EBB0CA82EBF282A
:100DE000C501BB0CAA0BBB0BFB0180839183A283C3
:100DF000B38390E080E0CDB7DEB7EAE00C94202E1C
:100E000080911C0590911D059093230380932203EC
:100E10000895EFE6F0E08081877F8083E0E8F0E0EE
:100E20008081837F80830895CF92DF92EF92FF923B
:100E30006B017C0120E030E0A9010E94192F811193
:100E40000AC080918000837F80938000FF90EF90A4
:100E5000DF90CF900895809180008860809380001B
:100E6000C0929D04D0929E04E0929F04F092A00450
:100E700020E030E040E051E4C701B6010E9471304B
:100E80009B01AC0160E074E284E79BE40E941E2FAA
:100E90006B017C010E94902F709387006093860005
:100EA00020E030E048E452E4C701B6010E9471300E
:100EB00020E030E048EC52E40E941E2F0E94902F68
:100EC00070938D0060938C00C1CF80915F0281117F
:100ED00022C010927F060E940907109239061092D4
:100EE0003A0610922E0610922D06EFE3F6E080E00F
:100EF00090E0A0E8BFEB1182108282839383A483E9
:100F0000B58317821682389626E0EF37F20799F7F5
:100F100081E080935F0208958091A50481110E9471
:100F20006507089580E00895F894E82FE295EF7042
:100F3000F0E031A1282F2F7081E090E001C0880FF0
:100F40002A95EAF7982F9095932391A392A1892B44
:100F500082A3789408959091F70592FF06C0282FF8
:100F600028712830F9F4877F846093FF06C0282F0A
:100F700028712831F1F4877E84612091F80520FFE3
:100F800006C0382F38713830D9F4877F816021FF4F
:100F900006C0282F28712831D1F4877E816194FD05
:100FA000877E0895282F24712430F9F68B7F88607E
:100FB000DCCF282F2471243101F78B7E8861DDCFAF
:100FC000382F3171313019F78E7F8860E0CF282FAC
:100FD0002171213121F78E7E8861E1CFCF93DF939C
:100FE000EC018238910581F1D8F58133910509F43E
:100FF00098C020F58932910509F488C08A9709F4D0
:1010000097C0C11521E5D20708F0B1C0C11530E580
:10101000D30708F0F9C0CF3BD10508F090C0C83A1B
:10102000D10508F0E6C0C53AD10508F0DAC0C430F1
:10103000D10520F5C130D10509F145C085339105B1
:1010400009F45FC0C997E9F68091F705837009F04C
:1010500029C18091F80583FF11C0C9E2D0E00EC01C
:10106000833E910599F170F4803E910501F1823E35
:10107000910539F68091F70582FD21C0CE01DF91FF
:10108000CF910895863E910561F1873E910571F1FA
:10109000843E910509F0B5CF8091F80581FFEECF30
:1010A0008091F705C7EED0E084FD0DC0E7CF8091B9
:1010B000F70580FD33C09091F80590FFDFCFC3EEB8
:1010C000D0E084FFDBCFD0E0C0E0D8CF8091F7053F
:1010D00082FDE5C09091F80590FDE4C084FFCECF7D
:1010E000F2CF8091F70583FDDDCFC8CF8091F70562
:1010F00083FDDBC09091F80591FFF0CFC4EED0E006
:10110000BDCF8091F70585FFB9CFA7CF8091F705B7
:1011100085FDCEC08091F80583FFB0CFC9E3D0E054
:10112000ADCF8091F70586FFA9CFCAE2D0E0A6CF68
:101130008091F70586FFA2CFC1E3D0E09FCFC11514
:1011400040E2D40760F4C11581E0D80708F096CFDB
:10115000CE01805E9109089708F490CFB4CFC115F5
:1011600020E4D20708F4AFCFDF70D06A87CFC11573
:1011700034E5D30778F4C11543E5D40708F06DC012
:10118000C11582E5D80708F054C0DC2FCC27C16F09
:10119000D06A74CFC1152AE5D20778F4C11539E5B4
:1011A000D30708F06EC0C11548E5D40708F48BCF0B
:1011B000DC2FCC27C06FD06A61CFCE01905681154D
:1011C000904208F080CF8D2F8F710E94AB0790E086
:1011D000982F882788279F719C012C2BE901D062CA
:1011E0004DCFC55AD0E0CE5ADC4FC881D0E0D06494
:1011F00045CFC85AD0E0CC0FDD1FCB5ADC4F099049
:10120000D881C02DD4643ACF2C2F269526952370F3
:1012100040E2249F900111248C2F8370C1E0D0E024
:1012200002C0CC0FDD1F8A95E2F7C22BD32BDD68FD
:1012300025CFCE018370992721E030E002C0220F34
:10124000331F8A95E2F7C695C69580E2C89FE001F4
:101250001124C22BD32BDC6811CFCE0183709927C8
:1012600021E030E002C0220F331F8A95E2F7C695D5
:10127000C69540E2C49FE0011124C22BD32BDA684B
:10128000FDCE8C2F8F700E94AB0734E0D695C795AA
:101290003A95E1F7CF709C2FEC01D069EFCEC2EE0A
:1012A000D0E0ECCEC0EED0E0E9CEC6EED0E0E6CEA7
:1012B000C5E3D0E0E3CE80959091FB049823909312
:1012C000FB040895209135049091F403291302C082
:1012D00080E0089530E0F90153E0EE0FFF1F5A95CA
:1012E000E1F7EB50FC4F5181561306C05081581363
:1012F00003C05281541304C02F5F3F4F2770E6CFC5
:1013000081E00895809135049091F403981301C011
:1013100008958F5F8770FACFA82FA77023E0969566
:1013200087952A95E1F7FC01EE0FFF1FE80FF91FE3
:10133000E60FF71F50E040E080E0219130E00A2EF8
:1013400002C0369527950A94E2F721703327042EC0
:1013500001C0220F0A94EAF7822B4F5F5F4F4330A0
:10136000510559F70895903FC9F0943080F48A30C0
:10137000A8F4282F30E06DED73E0A901EAE09E9F0C
:10138000400D511D1124CA010E948C0908959C5FD3
:10139000923020F46AED73E090E0F6CF80E008959B
:1013A000262F277091E001C0990F2A95EAF723E0D4
:1013B000769567952A95E1F7FB01EE0FFF1FE60F83
:1013C000F71FE40FF51F50E040E0682F70E08191B7
:1013D000DF0111979B01042E02C0369527950A94D0
:1013E000E2F7217021952827292328272C934F5F86
:1013F0005F4F4330510559F70895282F862F903FAE
:1014000079F0943070F42A3058F4622F70E02AE0BA
:10141000929F600D711D11244DED53E00E94D00983
:1014200008959C5F9230E0F7622F70E04AED53E040
:10143000F5CF92959F70963091F058F4925F9F701F
:10144000923058F4803F19F030F4883E30F481E057
:1014500008959A5FF4CF843FD1F380E00895883EE9
:10146000B0F3813FD1F7F3CF81FF05C05B9A83FFD3
:1014700004C05D9A08955B98FACF5D9808959C0129
:101480003A9521153F4150F5FC01EE27F170BC0162
:1014900066277270AC01442754709C012227387073
:1014A00094FF0EC080E1EF2B09F480E0672B09F078
:1014B0008062452B09F08064232B89F080680895B1
:1014C00081E0EF2B09F480E0672B09F08260452B67
:1014D00009F08460232B19F08860089580E0089556
:1014E0008093F9057093FB056093FA0580912106BE
:1014F0008430F9F48093E9008FEF9091E8008150F7
:1015000095FD06C095ED9A95F1F700008111F5CF94
:101510008091E80085FF0DC050E040E063E070E09E
:1015200089EF95E00E9479048091E8008E7780939E
:10153000E8000895BC0184E00E94700A0895BC018F
:1015400083E00E94700A0895CF93DF93EC018091AD
:1015500026038823B1F18091F70587FF32C060E24E
:1015600084E08093E9008FEF9091E800815095FD31
:1015700006C095ED9A95F1F700008111F5CF8091A5
:10158000E80085FF1BC08091260370E050E040E03A
:10159000811104C050E040E068E070E0CE010E949C
:1015A00079048091E8008E778093E80080E2FE0164
:1015B000AFEFB5E001900D928A95E1F7DF91CF9101
:1015C000089568E081E0CDCF81E08093E00080E283
:1015D0008093D8001092C9008FE19EE40197F1F743
:1015E00000C0000087E090EBDC01809380069093C0
:1015F0008106A0938206B093830688E19CE00FB633
:10160000F894A895809360000FBE90936000FFCF80
:10161000019708F40895EFE9FFE03197F1F700C072
:101620000000F6CFCF93DF93CBEFD1E060E0CE01A7
:101630000E94DD2E2196C11584E0D807B9F7DF910D
:10164000CF9108950F931F93CF93DF93142F022F01
:10165000843020F5623010F598E0899FE001112474
:1016600084E0689FB0011124C60FD71FC959DE4F0F
:1016700082E090E0442311F090E080E0632F8C0F33
:101680009D1F0E94DD2E83E090E0112311F081E088
:1016900090E0602F8C0F9D1F0E94DD2EDF91CF9177
:1016A0001F910F9108951F93CF93DF93122F8430D2
:1016B000E0F46430D0F44A30C0F4C42FD0E0CC0F52
:1016C000DD1F94E1699FC00DD11D112490E5899F14
:1016D000C00DD11D1124632FCE0187960E94DD2EEF
:1016E000612FCE0188960E94DD2EDF91CF911F9150
:1016F0000895CF93C82F6FEF811167E483E290E0E4
:101700000E94DD2E6FEFC11162EA84E290E00E9438
:10171000DD2E6FEFC11166E485E290E00E94DD2EC0
:10172000CF9108950F931F93CF93DF930CE115E0B2
:10173000C7E8D1E0CE010E94CF2EF80161918F0160
:10174000681719F0CE010E94DD2E2196CB3AF1E008
:10175000DF0781F7DF91CF911F910F9108950F93CC
:101760001F93CF93DF930CE115E0C7E8D1E0CE01E2
:101770000E94CF2EF80181938F012196CB3AF1E0A0
:10178000DF07A9F7CBE8D5E0FE018591949100979A
:1017900011F0FC0109952C96F6E0CB31DF07A1F79B
:1017A000DF91CF911F910F910895FF920F931F9397
:1017B000CF93DF93F42E843070F5623060F528E02B
:1017C000829F8001112434E0639FB0011124060F31
:1017D000171F09591E4F82E090E0442311F090E05A
:1017E00080E0800F911F0E94CF2EC82FD0E0DC2F09
:1017F000CC2783E090E0FF2011F081E090E0800FA3
:10180000911F0E94CF2E9E01282BC901CDB7DEB7B4
:10181000E5E00C94252E90E080E0F8CF0F931F9325
:10182000CF93DF93843030F5643020F54A3010F5E3
:10183000C42FD0E0CC0FDD1F24E1629FC00DD11D6D
:10184000112430E5839FC00DD11D1124CE01879650
:101850000E94CF2E082F10E0102F0027CE0188966F
:101860000E94CF2E9801282BC901DF91CF911F91A3
:101870000F91089590E080E0F8CF2091F904309125
:10188000FA04232BC9F4703F39F4603FA9F4809126
:10189000F7049091F8040895843070F4743038F4AB
:1018A0006A3050F4462F672F0E940E0C08957D3F3A
:1018B00031F441E0623040F090E080E008957C3FF8
:1018C000D9F76230C8F740E00E94D50B0895CF9257
:1018D000DF92FF920F931F93CF93DF936C010091E0
:1018E0002B0680915604082BC7E0D0E010E0FC2EB8
:1018F000C8010C2E02C0959587950A94E2F780FDE9
:101900000CC02197A0F7F12C8F2DDF91CF911F9163
:101910000F91FF90DF90CF900895B6018C2F0E9419
:101920003D0C0E94EE07019761F3EECFCF93DF935A
:10193000EC010E94670CBE010E943D0C0E94EE0764
:10194000DF91CF910895CF93DF93EC014B815C81C0
:10195000698188810E943C06811110C08E819F811F
:10196000009739F00E94EE070E94190ADF91CF918B
:101970000895888199810E94960CF6CF80E0F6CF79
:10198000A5E0B0E0E6ECFCE00C940B2E49835A8312
:1019900089819A81662399F0222389F00E94670C3D
:1019A000182F682F89819A810E94FD0969817A81A7
:1019B000812F0E943D0C2596E3E00C94272E0E9477
:1019C000B309182FF3CFFC01262F8681978100974A
:1019D00039F4408151816281738184810E94C00CFD
:1019E000089583E290E00E94CF2E873489F484E248
:1019F00090E00E94CF2E823A59F485E290E00E9456
:101A0000CF2E91E0863409F090E0892F81700895FF
:101A100080E0FCCFDA019C012E5F3F4FF901459138
:101A20005491F90125913491A217B30758F0FC01A4
:101A30003496859194910E94AF2E0E94920B90E073
:101A400080E008958FEF9FEF0895DB01FC0132964F
:101A5000259134914217530758F0FC013496659153
:101A60007491A901CD010E94AF2E90E080E008950D
:101A70008FEF9FEF0895AAE0B0E0E1E4FDE00C9461
:101A8000062EE7EAF4E080E5DF011D928A95E9F78A
:101A9000E8EAF5E088E3DF011D928A95E9F787EA35
:101AA000C82E84E0D82E7F010BEA11E0F701D18225
:101AB000C0824AE050E0B801CE0101960E94BF2EDC
:101AC00088E0FE013196D60101900D928A95E1F7EA
:101AD00089859A85D70113969C938E931297BAE0C5
:101AE000CB0ED11CE7E0EE0EF11C065F1F4F0B3F43
:101AF000F1E01F07D9F62A96E8E00C94222E8554CF
:101B0000990BBC01990F880B990B0E94C12F20E003
:101B100030E040E451E40E941E2F9B01AC0160E0E4
:101B200070E080E090E40E94DE3020E030E04CED98
:101B300053E40E9471300895A8E0B0E0E2EAFDE0CD
:101B40000C94022E8E010F5F1F4F88E0F801119256
:101B50008A95E9F793E8E92E93E0F92E6801AA2423
:101B6000A394B12CF70181917F018F3F09F446C006
:101B7000F894E82FE295EF70F0E021A18F70A501B5
:101B800002C0440F551F8A95E2F7CA01922F982B85
:101B900091A392A18095892382A3789400C0E7E85D
:101BA000F3E021E030E0912C812C41914F3F09F48A
:101BB00067C0A42FA295AF70B0E090968C9190E092
:101BC0004F7002C0959587954A95E2F780FD58C001
:101BD000C901882A992A220F331F53E0E139F507FA
:101BE00021F7F701319780818F3F11F00E94940710
:101BF00080EA8A95F1F7F60191828082F2E0CF0EB9
:101C0000D11C47E8E41643E0F40609F0ABCF48E006
:101C100050E0B8018AE594E00E94A22E892B99F148
:101C200088E0F801AAE5B4E001900D928A95E1F709
:101C300081E0809359040E94CD05909358048093CD
:101C4000570480915704909158040E94B20505975B
:101C5000F0F048E050E06AE574E084E994E00E9426
:101C6000A22E892BC9F088E0EAE5F4E0A4E9B4E00B
:101C700001900D928A95E1F781E01092590408C015
:101C800090E080E0A6CF809159048111DACF80E006
:101C90002896ECE00C941E2E80E0EFCFCF93C091FD
:101CA000FB0480912C06C82BC093B60340E250E0A1
:101CB00066E374E086EB93E00E94A22E892B11F17B
:101CC00080E2E6EBF3E0A6E3B4E001900D928A95A2
:101CD000E1F7E091EE05F091EF05309799F08091F2
:101CE0002603882349F08091F70587FF05C0C0933C
:101CF000B70386E08093B6030280F381E02D86EB84
:101D000093E00995CF91089580912403877F809374
:101D1000240390912C069D7F90932C0684FF08C08D
:101D20008F7E809324038091FB0482608093FB0468
:101D30008091240385FF08C08F7D809324038091C8
:101D4000FB0480628093FB040E944E0E089590E095
:101D500080E00E94190690E080E00E940306109245
:101D60002C060E944E0E089580932B060E94A70E0B
:101D7000089580912B06982F9670963021F48860F4
:101D80000E94B40E0895877FFBCF21E030E001C0B0
:101D9000220F8A95EAF7209580912B0682230E94D4
:101DA000B40E089521E030E001C0220F8A95EAF7D1
:101DB00080912B06822B0E94B40E089580935604C6
:101DC0000E94A70E08951092FB0480912603E8EB71
:101DD000F3E0882361F08091F70587FF08C08EE16A
:101DE000DF011D928A95E9F70E94A70E089586E00B
:101DF000F7CFAAE2B0E0EFEFFEE00C940B2E83E207
:101E000096E02091F100DC012D93CD01B6E08B32FC
:101E10009B07B9F780912406833009F472C0B8F4A7
:101E2000813009F449C0823009F4B3C08091E800E0
:101E300083FF96C280912306909124069A3008F081
:101E40008FC2E92FF0E0EE52FD4C0C94692E8A30DF
:101E500009F48EC08B3009F471C0893039F7809154
:101E60002306813219F78091270690912806009762
:101E700011F00297D9F68091E800877F8093E800FF
:101E80008091E80082FF38C09091F3008091F200C9
:101E9000029731F48091F100813011F0863021F405
:101EA0008091F1008093FE058091E8008B7780930C
:101EB000E8000E94A304BACF80912306813A09F07A
:101EC000B5CF8091E800877F8093E8008091270656
:101ED00090912806892B61F460E28FEF95E070E025
:101EE0000E944F058091E8008B778093E8009ECF99
:101EF00060E090E080E0F3CF809121068111C0CFB7
:101F000095CF80912306813A09F090CF80912706E2
:101F100090912806892B09F089CF8091E800877F6E
:101F20008093E8008091E80080FFFCCF8091260339
:101F30008093F1008091E8008E77B9CF80912306DD
:101F4000813209F073CF8091270690912806892B62
:101F500009F06CCF8091E800877F8093E8000E94B1
:101F6000A30480912506809326030E94E30E5ECF92
:101F700080912306813209F059CF8091E800877F54
:101F80008093E8000E94A304809126068093FD05BB
:101F90004DCF80912306813A09F048CF8091E80027
:101FA000877F8093E8008091E80080FFFCCF8091DC
:101FB000FD05BECF803899F0823809F0D1C18091FB
:101FC00027068F70873008F0CBC18093E90080919D
:101FD000EB0085FB882780F91092E90006C080910C
:101FE0001F0690912006911182609091E800977FE2
:101FF0009093E8008093F1001092F1008091E80046
:102000008E77AAC1882309F498C1823009F0A8C14B
:102010008091250681119BC1809127068F702FEF3B
:10202000280F263008F09CC18093E9002091EB0036
:1020300020FF8DC1933031F48091EB00806280935A
:10204000EB0085C19091EB0090619093EB0021E053
:1020500030E001C0220F8A95EAF72093EA0010923F
:10206000EA008091EB008860EACF811179C110917C
:1020700025061F778091E3008078812B8093E30011
:102080008091E800877F8093E8000E94A3048091FC
:10209000E80080FFFCCF8091E30080688093E3003C
:1020A00082E0111183E0809321065AC1805882306A
:1020B00008F056C120912506309126062C3DE3E01C
:1020C0003E07A1F583E08A838AE289834FB7F894BB
:1020D000DE01139620E03EE051E2E32FF0E0509362
:1020E0005700E49120FF03C0E295EF703F5FEF706F
:1020F0008E2F90E0EA30C0F0C7968D939D932F5FAE
:10210000243159F74FBF8091E800877F8093E80022
:102110006AE270E0CE0101960E944F058091E800CE
:102120008B778093E8001CC1C096E7CF809127068B
:1021300090912806432F55274330510509F44AC092
:1021400078F54130510509F485C08BE590E0E1E177
:10215000F6E04230510509F003C12091E800277FE5
:102160002093E8002091290630912A0682179307D0
:1021700008F49C0140E02115310509F070C04111BF
:102180006EC08091E80082FDC9CF8091210688232E
:1021900029F2853019F28091E80083FFF2CFBECF9B
:1021A0004132510509F447C04232510509F0D8C007
:1021B0008330910508F0D4C0FC01EE0FFF1FE855F5
:1021C000FC4F0190F081E02D8B559C4FDC018C91F0
:1021D00090E01DC0332721303105E9F0211531058C
:1021E00079F022303105F9F02330310509F0B8C01B
:1021F000EEE7F6E0E4918E2F90E0EEE7F6E007C020
:10220000E0EDF6E0E4918E2F90E0E0EDF6E000974F
:1022100009F4A6C0A2CFE6EBF6E0E4918E2F90E0A1
:10222000E6EBF6E0F4CFECE9F6E0E4918E2F90E0F7
:10223000ECE9F6E0ECCF8330910508F091C0880F0F
:10224000991FFC01E255FC4F0190F081E02D89E0DF
:1022500090E083CF82E190E0ECE6F6E07ECF8091E3
:102260002106882309F45ACF853009F457CF80918D
:10227000E80083FD53CF8091E80082FD82CF8091FA
:10228000E80080FF78CF9091F3008091F200211553
:10229000310519F08830910550F041E0089709F0B8
:1022A00040E08091E8008E778093E80064CF44910D
:1022B0004093F1003196215031090196E8CF8038E2
:1022C00009F04EC08091E800877F8093E8008091FC
:1022D00022068093F10092CE811142C01091250612
:1022E0001230F0F58091E800877F8093E80010932A
:1022F00022060E94A304112311F084E005C08091FE
:10230000E30087FDFACF81E08093210642E061EC93
:1023100081E00E94C20442E261EC84E00E94C204B7
:1023200042E261EC82E00E94C20442E260EC83E09F
:102330000E94C2048091210613C08091250681303D
:1023400079F481E0933009F080E0809320061092C8
:10235000E9008091E800877F8093E8000E94A30451
:102360008091E80083FF0AC08091E800877F809316
:10237000E8008091EB0080628093EB00AA96E3E096
:102380000C94272ECF93ECE1F5E0128E138E8FEA9A
:1023900090E09183808385E0848F28E833E1338364
:1023A000228322E330E0378B268B28EC30E0318F1C
:1023B000208F158E178E168E20E530E031A320A3D6
:1023C00082A30E94920B0E94E30E1092F8051092D5
:1023D000F705E8EFF5E08081846080836091F70580
:1023E000C82F84E090E00E94DD2E6C2F82E290E006
:1023F0000E94DD2E0E94AF0BCF910895AAE0B0E0BD
:10240000E4E0F2E10C94FF2D8090200390902103F2
:1024100081E090E0909321038093200381E2A82E35
:1024200084E0B82E91E4C92E94E0D92E10E0760114
:1024300000E015C0F30125913491452D602F812FC7
:102440000E94530B82E0680E711C53949AE059125B
:10245000F1CFE4E1EE0EF11C0F5F043019F037010B
:10246000512CE8CF750100E0F7012591349141E04E
:10247000602F812F0E94220BF70132962591349113
:1024800040E0602F812F0E94220BF4E0EF0EF11C40
:10249000013049F588E0A80EB11C1F5F90E5C90E18
:1024A000D11C143009F0C3CF0E94C211FE01319635
:1024B0007F018AE011928A95E9F70BEA11E04AE080
:1024C00050E0B801C7010E94012F065F1F4F0B3F6C
:1024D000F1E01F07A1F790922103809220032A9632
:1024E000EFE00C941B2E01E0BFCF80E00E94790B3F
:1024F00060E086E290E00E94DD2E0E94FE110E94C4
:10250000120B81E00E94790B0895CF92DF92EF9237
:10251000FF928FEF9FEF4430510508F46EC0FB012E
:10252000C080D180E280F3800E94E30E6091F705C5
:10253000C0FA60F9D701C601B695A795979587951A
:1025400080FB61F9D701C60132E0B695A795979552
:1025500087953A95D1F780FB62F9D701C60143E030
:10256000B695A795979587954A95D1F780FB63F91E
:10257000D701C60154E0B695A795979587955A95CA
:10258000D1F780FB64F9D701C60175E0B695A79530
:10259000979587957A95D1F780FB65F9D701C601A4
:1025A000E6E0B695A79597958795EA95D1F780FBD4
:1025B00066F9D701C601F7E0B695A7959795879577
:1025C000FA95D1F780FB67F96093F7058091F805DC
:1025D000D0FA80F9D1FACC24C0F8F82EC0FAF1F87C
:1025E000F092F80584E090E00E94DD2E6F2D82E2EB
:1025F00090E00E94DD2E90E080E0FF90EF90DF9071
:10260000CF900895882341F0809590912C068923DE
:1026100080932C060E944E0E0895882339F09091E5
:102620002C06982B90932C060E944E0E089588231A
:1026300021F00E945B090E944E0E0895882339F014
:102640009091FB04982B9093FB040E944E0E0895EA
:10265000882351F19CEF980F913A40F4682F86EB54
:1026600093E00E94D9050E944E0E089590E2980FC3
:10267000983050F4877091E001C0990F8A95EAF77D
:10268000892F0E945B09EFCF9BE5980F933028F4C8
:1026900090E080E00E9419060895885A873120F45E
:1026A00090E080E00E9403060895CF93DF93EC0151
:1026B0000E942813CE010E943F0A9E01205E31092C
:1026C0002830310510F0CD2B29F40E941713DF912B
:1026D000CF9108950E940213FACFCF93C82F882379
:1026E00009F445C08CEF8C0F813A08F068C08091E6
:1026F00026038823F1F18091F70587FF3AC0EC2F7C
:10270000E695E695E695F0E0EA54FC4F828190E08C
:102710004C2F477021E030E002C0220F331F4A9552
:10272000E2F782239323892B61F06C2F86EB93E0F1
:102730000E94D9050E944E0E26C08091F70587FFA2
:1027400026C0AC2FA695A695A695B0E0AA54BC4F7E
:10275000C77021E030E001C0220FCA95EAF7129657
:102760008C911297822B12968C930E944E0ECF91D1
:102770000895E8EBF3E08EEB93E02191C217A9F204
:102780008E179F07D1F7809126038111D6CFA8EB32
:10279000B3E0EFEF80E09D91C91739F3EF3F19F4F3
:1027A000911101C0E82F8F5F8630A9F7EF3FE9F262
:1027B0000E2E000CFF0BEA54FC4FC283D6CF80E2F2
:1027C0008C0F883068F4C77021E030E001C0220F20
:1027D000CA95EAF78091FB04822B8093FB04C5CF56
:1027E000EBE5EC0FE33040F4F0E0EE5AFC4F808173
:1027F00090E00E941906BBCFC85AC73108F0B7CF86
:10280000EC2FF0E0EE0FFF1FEB5AFC4F808191811F
:102810000E940306ACCF1F93CF93DF93182FC09174
:102820003C05D0913D05893321F0C0913A05D09106
:102830003B05812F0E946D13209739F4812F0E9450
:102840002813DF91CF911F9108958FE99FE00197A1
:10285000F1F700C000002197EFCFB0E0A0E0E3E384
:10286000F4E10C94042EEC018AE0A82E28812223A6
:1028700009F48FC02130C9F599818A81913021F402
:1028800022960E940B1405C0923029F422960E94D1
:102890006D132196EBCF933021F422960E942813DA
:1028A000F8CF943011F02196F4CF229630E020E05A
:1028B000AE014F5F5F4F8053990B8A30910550F006
:1028C0002150310930F38FE99FE00197F1F700C003
:1028D0000000F6CFA29EB001A39E700D11249C01B2
:1028E000260F371F8981EA01E3CFE22FF0E0EC5F8A
:1028F000F84FB490822F86958695869590E0FC01DE
:10290000EC50F94FE4902770F12C022E02C0F594A0
:10291000E7940A94E2F731E0E322FF24FC01EC5152
:10292000F94FC490D12C022E02C0D594C7940A94BA
:10293000E2F731E0C322DD24FC01EC52F94F0491AF
:1029400010E002C0159507952A95E2F7017011274E
:10295000E114F10419F081EE0E946D13C114D10449
:1029600019F086EE0E946D138B2D0E940B14C1147A
:10297000D10419F086EE0E942813E114F10419F035
:1029800081EE0E9428130115110509F482CF8CE213
:1029900078CFCDB7DEB7EAE00C94202ECF93DF934B
:1029A000EC010E943F0A9E01205E3109283031056A
:1029B00010F0209741F40E941E138C2F0E946D137B
:1029C000DF91CF9108950E940D13F7CF662329F070
:1029D00020912C06226020932C069C013056211554
:1029E00040E2340720F0305E2115304108F4992789
:1029F0000E94CE140895B0E0A0E0E1E0F5E10C946F
:102A0000072E7C018B01D42E8091240382FF8CC081
:102A1000C0914205D0914305CE15DF0521F0E114A8
:102A2000F10409F081C0809124038B7F80932403FB
:102A300081FD73C08091400590914105A801481B1C
:102A4000590B81E020912203309123034217530751
:102A500008F480E08170F82E80912403F0FA81F967
:102A600080932403FE0183E0F695E7958A95E1F7CC
:102A7000EE71FF27E450FB4F20813181AE014F7092
:102A8000552781E090E002C0880F991F4A95E2F730
:102A9000FF2009F444C0822B932B91838083809183
:102AA000FB0481FF08C0809124038061809324038C
:102AB00082E00E945B098091FB0485FF08C0809141
:102AC000240380628093240380E20E945B096F2DBF
:102AD000CE010E94E614DD2031F08091370585FF9C
:102AE00002C086FF3BC080913A0590913B050E9451
:102AF000080B80914205909143059C0130562115A9
:102B000040E2340720F0305E2115304108F4992767
:102B10000E9455130E94840E1DC081E09BCF8095BA
:102B2000909582239323B9CFC701992797013056F7
:102B3000211540E2340728F0305E2115304108F0BD
:102B4000C7010E94551380914205909143058E154F
:102B50009F0501F31093410500934005CDB7DEB703
:102B6000E7E00C94232E90E080E00E94D72E883E70
:102B70009E4F19F40E94F10C089580E0089568EECC
:102B80007EEF90E080E00E94FB2E60E082E090E02B
:102B90000E94DD2E60E083E090E00E94DD2E109226
:102BA000560460E084E090E00E94DD2E64E082E262
:102BB00090E00E94DD2E60E085E090E00E94DD2E36
:102BC00060E086E090E00E94DD2E6FEF87E090E00D
:102BD0000E94DD2E40E050E0BA0188E090E00E94C3
:102BE000EF2E60E08DE090E00E94DD2E40E050E0AE
:102BF000BA0188E190E00E94EF2E60E087E190E06A
:102C00000E94DD2E40E050E0BA018CE190E00E948D
:102C1000EF2E70E060E080E290E00E94FB2E40E04A
:102C200050E0BA0188E190E00E94EF2E80E00E941F
:102C3000790B0E94751240E050E0BA018FE090E0FD
:102C40000E94EF2E40E050E0BA0183E190E00E9444
:102C5000EF2E089580913B06811141C00E94B3156B
:102C6000811102C00E94BF1587E090E00E94CF2E24
:102C700080933C06EFE3F6E080E090E0A0E8BFEB55
:102C80001182108282839383A483B5831782168274
:102C9000389626E0EF37F20799F780913B068111CD
:102CA0000CC00E940907279A82E0809380008AE185
:102CB0008093810081E080933B060E9465078091AC
:102CC0003C0680FF06C063E070E087E292E00E946D
:102CD0001F170E94CD059093300680932F0608950C
:102CE000B0E0A0E0E6E7F6E10C94012E4B015C01B8
:102CF0007A0180913C0680FF81C080913B06811162
:102D000002C00E942A1620E030E0A901C501B401EA
:102D10000E94192F87FF04C0B7FAB094B7F8B09497
:102D200070907F06872D8150990B6C01EC01CF3F8D
:102D3000DC0709F04DC081E0870D893008F47CC0C4
:102D400088E080937F068FE396E028E0FC013896C8
:102D5000DC0101900D922A95E1F7089626E087376D
:102D6000920799F781E080939C0480933A06C09182
:102D70007F06C150DD0B0E94CD05FE0123E0EE0F62
:102D8000FF1F2A95E1F7E15CF94F918380838282EE
:102D90009382A482B582F782E6820E94CD0580915B
:102DA0005F02882359F180916F00886080936F00E3
:102DB0008091800088608093800080913A0688230B
:102DC00021F00E94FC030E94140710925F0216C0BB
:102DD0008E0133E0000F111F3A95E1F7015C194FA6
:102DE000A5019401F80162817381848195810E941B
:102DF000192F81111FC0CC15DD052CF0CDB7DEB722
:102E0000EDE00C941D2E219688E0F8013896D8014B
:102E100001900D928A95E1F70E94CD05F801918706
:102E2000808782869386A486B586F786E686085FC5
:102E30001F4FE1CF21977BCF80937F0693CFCF9217
:102E4000DF92EF92FF92CF93DF93EC017B018091B1
:102E50003C0680FD09C00E946507DF91CF91FF907D
:102E6000EF90DF90CF90089580913B06811102C0D2
:102E70000E942A1680913A0681110E94650781E01E
:102E80008093390610923806D0933706C0933606E1
:102E9000F0923506E0923406109233061092320614
:102EA000109231066C817D818E819F810E94902FCE
:102EB0009B01A0E6BAEE0E94762EC12C2EE1D22E06
:102EC000E12CF12CA70196010E94472E688179819F
:102ED0008A819B81A9010E9470160E94CD05909362
:102EE000300680932F06E0913606F09137068091E8
:102EF00031069091320633E0880F991F3A95E1F739
:102F0000E80FF91F64817581868197810E94902F57
:102F10009B01A0E6BAEE0E94762EA70196010E94C0
:102F2000472E30932E0620932D0697CF81E0809375
:102F3000A60468E070E080EE92E00E941F170895FA
:102F40000E948C071092A50468E070E080EA92E08D
:102F50000E941F17089581E08093A50468E070E047
:102F600080E692E00E941F17089562E070E08FE40F
:102F700092E00E941F172FEF81EE94E021508040D5
:102F80009040E1F700C000000E94650760913C0698
:102F90006E7F60933C0687E090E00E94DD2E0895EE
:102FA00060913C06616060933C0687E090E00E947F
:102FB000DD2E62E070E08FE392E00E941F1708951B
:102FC000CF93DF930E94E30E0E948C070E94CD05F1
:102FD000EC0163E070E080E091E00E941F17CE01F9
:102FE0000E94B2058A3F910528F00E946507DF9193
:102FF000CF9108958FE99FE00197F1F700C000009D
:10300000EECF0E94E01788E19CE00FB6F894A895F7
:10301000809360000FBE90936000FFCF0E947F0DF1
:103020004FEF5FEF0E9470160895B0E0A0E0EBE173
:10303000F8E10C94062E6B017C0120E030E0A90140
:103040000E94192F87FF04C0F7FAF094F7F8F09464
:1030500080913A06882309F458C080913B0681117B
:1030600002C00E942A160FE316E0C7E0D0E0A701D5
:103070009601F80162AD73AD84AD95AD0E94192F34
:1030800081113CC083E0CC0FDD1F8A95E1F7C15C64
:10309000D94F1982188280E090E0A0E8BFEB8A83C4
:1030A0009B83AC83BD831F821E82AC01BD01F6E011
:1030B000C737DF0789F4C1E0C0939C0480917F0685
:1030C000815080937F06811120C00E940907C09320
:1030D0005F0210923A0619C088E0FE013896DE01C0
:1030E00001900D928A95E1F7198618864A875B87C9
:1030F0006C877D871F861E862896D9CF219708501A
:103100001109CF3FDC0709F0B2CFCDB7DEB7E8E059
:103110000C94222EA3E2B0E0E0E9F8E10C94032E37
:103120007C01DC0113964D915C91149711966C9182
:1031300011978C910E943C068111C9C061E0C701C2
:103140000E94E30C8C01F7018281882309F459C5A0
:10315000980122513F452031310508F03DC58FEFE0
:1031600093E00E94CF2E8111B2C07EEEF72EF00EBA
:103170000BEF11E0F11036C019821A821B821C82FB
:10318000BB24BA9478012FEFE21AF20AC8010E9418
:10319000CF2E89831A82882309F499C0813009F0DF
:1031A00087C0680142E0C40ED11CC7010E94CF2E27
:1031B000E82E8A83882309F48AC0C6010E94CF2E94
:1031C000F82E8FEF8E0D8330D8F4680153E0C50ED2
:1031D000D11CFB82FF2021F0CE0101960E942D140C
:1031E0008601D0CF0115F4E01F0709F470C0C801B3
:1031F0000E94CF2E811101C0FA940F5F1F4FBACFEA
:103200008BEF8E0D833070F5C8010396FB826C0145
:10321000FF2031F36801A4E0CA0ED11C0E94CF2E1A
:103220008C838823E9F20B811C810130BFEF1B07DF
:1032300010F0102F0027E6E0EE1681F0F7E0EF1611
:1032400049F0C8010E94A62380913A0590913B0560
:103250000E94080BC8010E948123C2CFC8010E94AE
:10326000A623BECF24E0E212BBCF680144E0C40E27
:10327000D11CC80103960E94CF2EFF2041F1882364
:1032800031F18150990BB89E9001B99E300D1124F7
:10329000AF2DA150BB0BCD01820F931F019708F4F6
:1032A0009FCFEFE9FFE03197F1F700C00000F6CFC4
:1032B000CE0101960E942D14670192CF81E00E94F9
:1032C000D20E03C081E00E94C50E0E94B90EA396E3
:1032D000EBE00C941F2E82E0F2CF0E314CE5140788
:1032E00031F4882309F480C00E94B517F0CF0F3164
:1032F0005CE5150741F4882309F476C080913C060B
:1033000080FDF2CF7BC40A329CE5190761F4882363
:1033100009F46AC010923E0664E070E088E191E032
:103320000E941F17D4CF0B32ACE51A0781F3063287
:10333000BCE51B0731F4882309F456C00E94AB1783
:10334000C6CF0732ECE51E0731F4882309F44CC0E0
:103350000E94A017BCCF0832FCE51F0741F49091F2
:10336000A504882309F440C09111F2CFE7CF0C32B5
:103370002CE5120729F48823B9F10E949617A7CFEC
:103380000D324CE5140749F4882371F11092A6041C
:1033900068E070E088E391E0C3CF0E325CE515078A
:1033A00039F4882309F18091A6048111EFCFE5CF8C
:1033B00009329CE51907C1F48823B1F00E948C07FB
:1033C0002091180230E02F5F3F4F23703327209366
:1033D000180248E2429FC001439F900D112465E00E
:1033E00070E088589E4F9CCF4091A504411159C070
:1033F0009091A604911155C08091370580FF39C086
:103400000E94CD056C01D70112968C91882309F496
:103410001EC18091240382FF08C022E834E040E00E
:10342000B60190E080E00E94FB140B31BCE51B0765
:1034300009F4FFC00C31ECE51E0709F400C19091BE
:103440002403892F8E7F90FF81600A31FCE51F07DE
:1034500009F4F8C0C8019056811520E2920728F0BF
:10346000905E8115904108F000C1109243051092C2
:103470004205D70112969C91992309F4D0C10E3DC3
:10348000BCE51B0709F4C7C1073AEDE51E0709F4BF
:10349000C4C101151C4509F0C2C10E94E0170E9479
:1034A000E40A882309F44BC0003E110561F40E9430
:1034B0008C0781E08093D7031092D6031092810489
:1034C00010927D0404CF023E110571F40E948C0716
:1034D0008091D703882319F081E08093D60310925E
:1034E000D70310928104F3CE033E110591F490911D
:1034F000D603992321F10E948C071092D70381E013
:103500008093810410927E041092800410927F04B4
:10351000DECE0235110551F48091250290912602EC
:103520000A979093260280932502D1CE013511058A
:1035300031F480912502909126020A96F2CF909163
:10354000180291112AC0D70111969C91119724E07D
:1035500030E0291B3109DC90B0E1DB0EECE02E9F5E
:10356000D00C1124882309F45BC0442319F08D2D5D
:103570000E940E188091D703882351F080917D041A
:10358000E82FF0E0E359FB4FD0828F5F80937D04FA
:103590000F3F110508F030CF9ACE913081F4D7015A
:1035A00011969C91119724E030E0291B3109D22E0D
:1035B000DD0CDD0CD20E9C919D5CD90ED3CF9230E8
:1035C00071F4F701918124E030E0291B3109D080AA
:1035D000F3E3DF0E57E0259FD00C1124C3CF5CE04E
:1035E000D52E933009F0BECF93E2E7E2F3E0DE019F
:1035F000119601900D929A95E1F7D701EC91EC0F9D
:10360000FD2FF11D11969C9124E030E0291B31091A
:10361000D084BCE02B9FD00C1124E9E0DE0EA2CFB9
:10362000442309F4B5CF8D2D0E947F0D0E941518FB
:10363000AFCF809124038160809324030BCF8091CE
:1036400024038E7F809324030E94840E03CF8091F5
:1036500024038F7E013E110531F0053E1105C1F4B2
:10366000809124038F7D809324038091240380FF25
:1036700000CFF70182810832110528F50E311105BE
:1036800008F068C00430110580F58111EECEF1CE4E
:10369000C8019056811550E2950720F0905E811583
:1036A000904118F78091240382FFE3CE8091390581
:1036B00081FDDFCE22E834E040E0B60190E080E01A
:1036C0000E94FB14D6CE0933110558F40D321105B2
:1036D00018F40B321105C9F69091370592FDD5CF3C
:1036E00008C004361105C1F3D0CF9091370594FD81
:1036F000CCCF882309F488C09091FB04892F8D7F5B
:1037000071F110924305109242058091370581FDB9
:1037100026C0F80133E0F695E7953A95E1F7EE71AA
:10372000FF27E450FB4F98012F70332781E090E092
:1037300002C0880F991F2A95E2F780959095208105
:103740003181822393239183808360E0C8010E94AA
:10375000E614BDCD9091370593FD97CFCACF88E091
:10376000F701A2E8B4E001900D928A95E1F710927A
:1037700084041092860410928504E0904205F09033
:1037800043050E151F0581F58091370585FF2CC077
:103790002091240321FBBB24B0F821FF02C086FF47
:1037A00023C02091400530914105A601421B530BD7
:1037B000483C5105C8F491FF08C080912403806102
:1037C0008093240382E00E945B098091FB0485FFC3
:1037D00008C08091240380628093240380E20E94C9
:1037E0005B096B2DC701B3CF8091240391FB81F955
:1037F0001093430500934205D0924105C0924005C5
:1038000084608093240363CD970140E0B601C80132
:103810000E94FB145CCD0E94BF150E940118D701C5
:1038200016962D913C9121153105D1F0C9010E94C8
:10383000EE07182F092FD7011296DC9012971596D4
:10384000CC90C2942FE0C22292959F70A92EB12CE9
:103850009C3008F050C0F501E452FD4C0C94692EE8
:10386000F70100811181992369F0C8010E94670C5A
:10387000D82E682FC8010E94FD09B8018D2D0E9425
:103880003D0CD5CFC8010E94B309D82EF6CFB02F7A
:10389000BF709B2E802F807F19F0929490EF992219
:1038A000DD20C9F0992069F080E2810F883010F0A6
:1038B00011110BC08091FB04982A9092FB040E9486
:1038C0004E0E812F0E946D1316C080912C06982AEF
:1038D00090922C06F4CF812F0E942813992059F042
:1038E00080E2810F883010F011111FC0892D0E94D5
:1038F0005B090E944E0E28E0A21AB10844E0A4160B
:10390000B10420F40E942F060E94340A812F902FC8
:103910000E94190A81113AC11092D9031092D8035A
:1039200060E0C7010E94E30CD2CC909480912C06F9
:10393000982290922C06DDCFE02FEF709E2E802FE4
:10394000807F803219F0929480EF9822113081F4B8
:1039500080913E05DD2031F08C1568F2892D0E94A2
:103960001E13C9CFC81638F6892D0E941713C3CF6E
:10397000DD20E9F0CC2091F320E0D7014C911196A5
:103980005C91119712966C91129713967C911397F4
:1039900014968C910E94C00C8091390581FD91CFC5
:1039A000F701858180FF8DCF8F708583D7CFCC20A5
:1039B000D9F280913C0590913D05193321F0809119
:1039C0003A0590913B050E94080B812F0E94281315
:1039D00092CF802F86958695837069F0813009F0AB
:1039E0008ACF812F902F9370D11002C090E080E099
:1039F0000E94030680CF812F902F9370D11002C0B8
:103A000090E080E00E94190676CF802F837091F5B8
:103A1000D11071CF412F429546954770440F440F06
:103A2000812F8F70042E01C0880F0A94EAF7212F8E
:103A3000207114FF07C02FE030E001C0220F4A952B
:103A4000EAF72095302F369536953370323069F08D
:103A500050F440915604313029F0822B84230E9487
:103A6000DE0E49CF842B822BFACF282B809156046F
:103A70008227F5CF8695DD2011F0802F8170882375
:103A800009F439CF412F429546954770440F440FB2
:103A9000812F8F70042E01C0880F0A94EAF7212F1E
:103AA000207114FF07C02FE030E001C0220F4A95BB
:103AB000EAF72095302F369536953370323069F01D
:103AC00050F440912B06313029F0822B84230E9440
:103AD000B40E11CF842B822BFACF282B80912B068A
:103AE0008227F5CFF02FFF709F2EDD2029F08F2F3A
:103AF0000E94D20E812F33CF812F0E941713892D60
:103B00000E94C50EF8CE113F81F148F4103FB1F08C
:103B1000DD20B9F1C110D5CE802F8F712AC0123FA0
:103B200059F1133FA9F780E0DD2089F281E0902F61
:103B30009F7101C0880F9A95EAF7C9CF80913E0521
:103B4000DD2079F0C81608F0D6CE202F2F7181E045
:103B500090E001C0880F2A95EAF790912B068927FB
:103B6000B6CF8C1508F4C7CEF0CF802F8F71DD2033
:103B700039F20E94D20EBFCE802F8F71DD20C9F3A3
:103B8000BFCFC11016CF802F8F71BACFDD2019F0B3
:103B9000C110C2CEC5CEC110BFCE20E0D7014C911E
:103BA00011965C91119712966C91129713967C91D5
:103BB000139714968C910E94C00C8091390583FF55
:103BC000ABCE8091D8039091D903029709F0A4CE8F
:103BD000812F0E940B14A0CE0031BFE51B0709F412
:103BE0006DCB0131EFE51E0709F475CB0D312CE5E6
:103BF000120709F072CB882309F4F6CB0E94D01784
:103C000066CB0031FFE51F0709F45CCB01312FE5DE
:103C1000120761F782E057CBEF92FF920F931F9349
:103C2000CF93DF938091F103807F09F04CC08091A6
:103C3000EE03882309F447C0C0913504E090F403F3
:103C4000D091EC03F090ED030091EF031091F0039D
:103C5000EC16C9F1A8016F2D8D2F0E943C062C2F68
:103C600030E0811135C0F90183E0EE0FFF1F8A9526
:103C7000E1F7DF01AB50BC4F11968C9111978F117A
:103C800027C08C918D1324C012968C9112978111AC
:103C90001FC013968D919C91801B910B883C9105C0
:103CA000B8F48091F1038F7080618093F103E65046
:103CB000FC4F80818F70806180838CEE93E00E9446
:103CC0008A180E948209CDB7DEB7E6E00C94242E54
:103CD0002F5F3F4FC22FC770BBCFA5E1B0E0E3E736
:103CE000FEE10C94FE2D8C0185E0F801DE01519679
:103CF00001900D928A95E1F7D8016C9011967C9015
:103D000011971296EC9012971396CD90DC9060E08C
:103D10008CEE93E00E94E30C8CEEA82E83E0B82E8C
:103D20005090EC034090ED038090EF039090F003EF
:103D3000A401642D852D0E943C0681115CC1F09088
:103D4000EE03960128193909FF2009F417C1809163
:103D5000F103982F907F283C310508F0D2C0F8017C
:103D60002181911181C0FE2C24111FC090819511D9
:103D70001CC04091F2035091F30326813781421712
:103D8000530799F4E11011C08F7080618093F103A3
:103D9000C5010E948A188091F103D80115968C9371
:103DA0008F2D6596E0E10C941A2EA601672D862DC5
:103DB0000E943C06D82E81E08E25D11080E080FF45
:103DC00018C04E2D672D862D0E946209882389F028
:103DD0008091390580FF0DC08CEE93E00E948A1817
:103DE00088E0ECEEF3E0DF011D928A95E9F7F12C13
:103DF000D7CF81E08E25D11080E0B82FB170DB2EB7
:103E000080FF29C04E2D672D862D0E946209C82E85
:103E1000811121C0698A7A8A89899A890E94960CBF
:103E2000292F22952F70223050F0243078F49F7083
:103E300051F0F8019581907F31F4FC2CB1CF9F7047
:103E400011F08823D1F3805E8830B8F3C8010E9456
:103E50008A18CD2CF2CFEE2009F4A2CF8091F10385
:103E600081608093F103C3CF24111BC09081951111
:103E700018C04091F2035091F30326813781421715
:103E8000530779F4E1100DC08583C8010E948A1898
:103E900088E0F801ACEEB3E001900D928A95E1F76D
:103EA0007FCFC8010E94A30C882339F1EE2029F1AD
:103EB0008091F1038032A0F02091EC033091ED036A
:103EC0003A8729871B86DD86CC868E878091F20310
:103ED0009091F303988B8F87CE0109960E948A18E0
:103EE00088E0F801ACEEB3E001900D928A95E1F71D
:103EF0000E940C1EFF24F39453CFC8010E948A181D
:103F0000F9CF992309F468CFF8019181941118C071
:103F10009081951115C04091F2035091F3032681D1
:103F200037814217530761F4E1100AC08583C80145
:103F30000E948A1888E0D5011D928A95E9F730CF52
:103F4000C8010E94A30C8823C1F2EE20B1F2809137
:103F5000F103803228F22091EC033091ED033A8393
:103F600029831B82DD82CC828E838091F203909123
:103F7000F30398878F83CE010196B0CF283C31059B
:103F8000C8F6FE2CEE2009F4B8CFF8018181841127
:103F900024C08081851121C02091F2033091F30368
:103FA0008681978128173907C1F48091390582FDF0
:103FB0006FCF9091F10390FD6BCF907F09F468CFA4
:103FC0008091F1038583903F09F45FCF982F907F14
:103FD000905F8F70892B858358CFC8010E94A30CF6
:103FE00081117ECF8091F10381608093F103C8013C
:103FF0000E948A18D5CEEE2009F47FCFC8010E9416
:10400000A30CF82E882309F478CF88E0F801ACEEF1
:10401000B3E001900D928A95E1F78091EC039091C5
:10402000ED030E94960C0E940C1EBACEA0E1B0E0F7
:10403000ECE1F0E20C940C2E29873A874B875C87E1
:104040006D877E878F87988BCE0109960E946D1EA3
:1040500081112FC088E0FE013996DE011196019092
:104060000D928A95E1F74C855D856A8589850E9468
:104070003C0681111EC0A091F403B0E0CD01019671
:10408000877099272091350428171906E1F093E0ED
:10409000AA0FBB1F9A95E1F7AB50BC4F98E0FE0109
:1040A000319601900D929A95E1F78093F4030E9466
:1040B0008209809135049091F403891312C06096AF
:1040C000E2E00C94282E0E94E30E1092F40310926A
:1040D000350488E0ECEEF3E0DF011D928A95E9F704
:1040E000E8CFB8E08B9FC00111248B509C4F0E94F9
:1040F0006D1E882321F38091350490E0019687702E
:10410000992780933504D5CFEF92FF920F931F9399
:10411000CF93DF9380914705882361F0C0914605D6
:104120008CE0F82E80914705C81748F0109247059B
:1041300010924605CDB7DEB7E6E00C94242EEE24AF
:10414000E394EC0EE09246050C2F10E0CF9DE001C9
:104150001124C85BDA4F4B815C81698188810E94A0
:104160003C0681111DC08E819F81892B21F4888599
:104170009985019651F4288139814A815B816C814E
:104180007D818E819F810E941620F09EF001F19E1C
:10419000F00D1124E85BFA4F1482138210922C0662
:1041A000CE2DC0CF1092EB051092EA051092250398
:1041B0008091E9058093E8050E9475060E9484209D
:1041C0000895B0E0A0E0E7EEF0E20C94FD2DC09180
:1041D000E80597E0892E01E010E02CE0322E3EEF5A
:1041E000932E442443948091E9058C1309C00E94C6
:1041F00084200E947506CDB7DEB7E1E10C94192E3C
:10420000D0E0FE01EE0FFF1FE052FA4F8081918156
:10421000889ED001899EB00D1124A855BA4F1496DE
:104220002C911497211158C050904705E8E4F5E00F
:1042300030E020E0712C5D01251508F04BC0E284D0
:10424000F384D501CD90DC906FEF7FEF612C462D8C
:1042500050E0DA01AA0FBB1FAC0DBD1D0D90BC9143
:10426000A02D109731F0EA16FB0609F4BA01639409
:10427000EECF6F3F7607A9F1D80102C0AA0FBB1F8E
:104280006A95E2F77A2AB801062C02C0660F771FFA
:104290000A94E2F7AB014150510974161506F9F47E
:1042A000329EF001339EF00D1124E85BFA4F889E98
:1042B000D001899EB00D1124A855BA4F12962D91A8
:1042C0003C911397378326839082918291878087D0
:1042D00015964C920E9447062196C37084CF148293
:1042E00013822F5F3F4F3C96A7CFA9E1B0E0EBE7E9
:1042F000F1E20C94FC2D942F498B252F5A8B6B8B5C
:104300007C8B8D8B4C895D89622F892F0E943C06A6
:10431000811109C08091D8039091D903019690939F
:10432000D9038093D8038B89811110922C061D86A6
:104330001E861F86188A85E0FE017196DE01199699
:1043400001900D928A95E1F74C855D856A85898596
:104350000E943C06811111C061E0CE0109960E94C5
:10436000E30C6C018B8527EFC2162CE5D20681F495
:10437000882321F181E08093250329853A854B85A7
:104380005C856D857E858F8598890E941620C6C0C4
:1043900038EFC3163CE5D30629F4882379F00E9450
:1043A000D220EBCF49EFC4164CE5D40639F488236C
:1043B00029F0809125038111F2CFDCCF08EA15E0C6
:1043C000512CB12CA12C22242394312C2EEF422EDF
:1043D000F8014081518188248A94982C20E0822F12
:1043E00090E0FC01EE0FFF1FE40FF51F608171816B
:1043F0006115710531F0C616D70609F44C012F5F1F
:10440000EECFF12CFFEF8F169F0609F449C0F8019B
:104410004481F09025038F2D411180E0F82FF17039
:10442000FF2EF801E58086819B85992309F4F8C069
:10443000FF2009F4F5C06090320570903305E1105B
:1044400013C0A101082C01C0440F0A94EAF7842B81
:10445000868380914405909145058615970520F443
:104460007092450560924405C10102C0880F991FF2
:104470002A95E2F70197F80126812817190681F499
:104480008091EA059091EB05009709F44BC00E94DA
:10449000B2056816790608F045C021E0F8012483CA
:1044A0005F28FFEFAF1ABF0A095F1F4F28E0A2166F
:1044B000B10409F08DCF8B85882309F40DC15520F7
:1044C00009F40AC10E94CD059093EB058093EA059B
:1044D00080914705883010F591E0980F909347053B
:1044E00098E0FE013996DE01119601900D929A95A1
:1044F000E1F73CE0839FC0011124885B9A4F28E0DC
:10450000FE013196DC0101900D922A95E1F72FEF23
:104510003FEFFC0131872087D386C2866996E2E1AE
:104520000C94182E8091E8055091E905982FF0E041
:10453000E0E0851314C09093E8050E171F0709F4F7
:10454000AFCF90E0FC01EE0FFF1FE052FA4FB182B7
:10455000A0820196837099278093E905A1CF682EE8
:10456000712CF301EE0FFF1FE052FA4F20813181D1
:1045700047E0429FD001439FB00D1124A855BA4F88
:104580006D917C911197798F688F40E020E030E049
:10459000E32FF0E0EE0FFF1F688D798DE60FF71F18
:1045A0008080918081149104E1F0F8010190F08104
:1045B000E02DFF8BEE8B20E005C08616970609F4F0
:1045C0004F2D2F5FE22FF0E0EE0FFF1F6E897F89E6
:1045D000E60FF71F608171816115710571F73F5F0B
:1045E000D7CF4423D1F0F801231708F0FD0121E0D3
:1045F00024830E171F0721F49093E805F42E50CF63
:10460000981305C0AE17BF0711F49F5F9370930115
:104610002F5F3F4F822F83708CCFF0E0E0E0F7CF29
:1046200090E0E11020C0B10102C0660F771F2A950B
:10463000E2F79B01215031092817390731F444234F
:1046400009F448C0C5010E944706C101082C01C0F9
:10465000880F0A94EAF7982F9095F80186818923AC
:104660008683FE2C1DCF9C01082C02C03595279512
:104670000A94E2F7A90141705527BC016150710904
:1046800086239723892B11F5452B01F1F8018281AF
:104690009381892BC1F01B821C821D821E8249825C
:1046A0004A820E94CD058160582F9D838C83F8013A
:1046B000828193818F83988729813A814B816D8193
:1046C0007E810E941620F8011582BFCFF22FF17073
:1046D000EF2EBBCFEF2CB9CF9091E8058091E90583
:1046E000981731F00E94E120552009F446CE16CFEC
:1046F0000E9484201092EB051092EA050E94750634
:10470000F3CFA5E0B0E0E7E8F3E20C940C2E909331
:10471000F8048093F704811520E2920730F40E9498
:1047200055132596E2E00C94282E80EF89838A8326
:104730001B820E94CD058160782F9D838C834981E7
:104740005A816B818D810E947521EBCFA5E0B0E08D
:10475000ECEAF3E20C940C2E9093F8048093F704A7
:10476000811520E2920730F40E94CE142596E2E0F3
:104770000C94282E80EF89838A8381E08B830E94AA
:10478000CD058160782F9D838C8349815A816B810F
:104790008D810E947521EACF1F920F920FB60F9262
:1047A00011242F933F934F935F936F937F938F9336
:1047B0009F93AF93BF93CF93DF93EF93FF93D091EA
:1047C000E900DF708091EC00C82FC17080FDC0E867
:1047D0001092E9008091F000877F8093F000789438
:1047E0000E94F90E1092E9008091F0008860809399
:1047F000F000CD2BCF70C093E900FF91EF91DF91D6
:10480000CF91BF91AF919F918F917F916F915F9168
:104810004F913F912F910F900FBE0F901F901895C1
:104820001F920F920FB60F9211242F933F934F9325
:104830005F936F937F938F939F93AF93BF93EF9308
:10484000FF938091E10082FF09C08091E20082FF26
:1048500005C08091E1008B7F8093E1008091DA00B8
:1048600080FF24C08091D80080FF20C08091DA00B2
:104870008E7F8093DA008091D90080FF9DC080E117
:1048800089BD82E189BD09B400FEFDCF81E080933E
:1048900021068091FC05811109C00E9429040E9413
:1048A000F4048091E20084608093E2008091E10052
:1048B00080FF17C08091E20080FF13C08091E2006A
:1048C0008E7F8093E2008091E20080618093E2001D
:1048D0008091D80080628093D80019BC85E08093D5
:1048E00021068091E10084FF2BC08091E20084FFCB
:1048F00027C080E189BD82E189BD89B5982F91707B
:1049000080FFFBCF8091D8008F7D8093D80080916D
:10491000E1008F7E8093E1008091E2008F7E8093A2
:10492000E2008091E20081608093E20080912206A3
:10493000882309F447C084E08093210680912106F2
:104940008091E10083FF27C08091E20083FF23C0B4
:104950008091E100877F8093E10082E080932106CF
:10496000109222068091E1008E7F8093E100809179
:10497000E2008E7F8093E2008091E200806180936C
:10498000E20042E060E080E00E94C2048091F0001A
:1049900088608093F000FF91EF91BF91AF919F915C
:1049A0008F917F916F915F914F913F912F910F90D8
:1049B0000FBE0F901F90189519BC109221061092EF
:1049C000FC0574CF8091E30087FD93E0909321066E
:1049D000B5CF78941F921FB61F9211248F939F9387
:1049E000AF93BF938091F3059091F405A091F505E5
:1049F000B091F6050196A11DB11D8093F30590932A
:104A0000F405A093F505B093F605BF91AF919F9182
:104A10008F911F901FBE1F9018951F921FB61F9257
:104A200011248F939F93AF93BF938091F2058111CF
:104A300013C08091F3059091F405A091F505B09114
:104A4000F6054196A11DB11D8093F3059093F405E1
:104A5000A093F505B093F605BF91AF919F918F910B
:104A60001F901FBE1F9018951F920F920FB60F92A6
:104A700011247F928F929F92AF92BF92CF92DF923A
:104A8000EF92FF920F931F932F933F934F935F9358
:104A90006F937F938F939F93AF93BF93CF93DF9346
:104AA000EF93FF938091A1049091A204A091A3049D
:104AB000B091A4040196A11DB11D8093A10490930F
:104AC000A204A093A304B093A4046091A1047091E4
:104AD000A2048091A3049091A4040E94BF2F6B01B3
:104AE0007C0120E030E040E85CE360919D0470913F
:104AF0009E0480919F049091A0040E9471309B01BC
:104B0000AC01C701B6010E94192F87FDB2C01092F7
:104B1000A1041092A2041092A3041092A404709015
:104B2000390680913A06811103C0772009F497C0B5
:104B30000E94CD056C0171101DC0712C80913A0648
:104B4000882379F080913D068111782ECFE3D6E05D
:104B500010E000E080917F068017110611F00CF044
:104B600007C180919C04882309F479C010929C04A9
:104B7000782E75C000912F0610913006C8010E9452
:104B8000B205C0912D06D0912E068C179D07A8F274
:104B9000C8010E94B2057C01EC1AFD0AD0923006D1
:104BA000C0922F068090310690903206E401219643
:104BB000D0933206C09331060E94CD05C0903406D2
:104BC000D0903506CC15DD0548F08091330688235A
:104BD00009F442C010923206109231060091360656
:104BE00010913706C0913106D09132068091380677
:104BF0005E0163E0AA0CBB1C6A95E1F7811157C006
:104C0000F40153E0EE0FFF1F5A95E1F7E00FF11F9B
:104C1000D801AA0DBB1D2D913D914D915C916081F4
:104C20007181828193810E94192F811140C081E09E
:104C3000809338064FE050E060E070E0CB010E94C6
:104C4000701690923206809231068FE090E0909339
:104C50002E0680932D0672CF0E946507712C8091DD
:104C60003A0681119DC080913906811199C00E9438
:104C70000907FF91EF91DF91CF91BF91AF919F9184
:104C80008F917F916F915F914F913F912F911F91E4
:104C90000F91FF90EF90DF90CF90BF90AF909F90DB
:104CA0008F907F900F900FBE0F901F9018951092CD
:104CB0003806F801EA0DFB1D6481758186819781B4
:104CC0000E94902F9B01A0E6BAEE0E94762E20E073
:104CD0003EE140E050E00E94472E81E0C81AD10832
:104CE000812C4EE1942EA12CB12C2E153F05F0F015
:104CF000D0933206C0933106E216F306A8F5C90137
:104D00008E199F097C0183E0CC0FDD1F8A95E1F7A6
:104D1000C00FD11F688179818A819B81A7010E9480
:104D20007016F0922E06E0922D0608CFCC15DD0508
:104D3000F8F6E21AF30A2196FE0123E0EE0FFF1FB8
:104D40002A95E1F7E00FF11F6481758186819781D3
:104D50000E94902F9B01A0E6BAEE0E94762EA5013C
:104D600094010E94472EC1CFEE24E394F12CCBCFC7
:104D7000EE80FF80C70101978E3F9F4F68F48881C6
:104D800099810E94B2058E159F0530F06A817B8162
:104D90008C819D810E9415180F5F1F4F2896DACED7
:104DA000772009F466CF0E94FC030E94140761CFAC
:104DB000CDB7DEB7C854D1090FB6F894DEBF0FBE29
:104DC000CDBF85B7806885BF85B7806885BF84B74C
:104DD000877F84BF0FB6F894A895809160008861A2
:104DE00080936000109260000FBE80E890E00FB6E4
:104DF000F89480936100909361000FBE82E997E080
:104E00009093B5038093B4030E943B0D0E94AF0BB7
:104E10000E9429040E94F4048091E200846080933F
:104E2000E2007894809121068823A1F01091E90096
:104E30001F709091EC00892F817090FD80E8182BF5
:104E40001092E9008091E80083FD0E94F90E1F7026
:104E50001093E90082E084BD93E095BD9AEF97BD81
:104E600080936E000E94F10C811102C00E947512A5
:104E700086E90E94940784E90E94940784E30E94D3
:104E8000940787E90E94940707E813E081E9E82E78
:104E900083E0F82ED8018D918D018F3F11F00E9493
:104EA0009407E016F106B1F788E0E4E9F4E0DF01E9
:104EB000282F1D922A95E9F7EAE5F4E0DF011D921B
:104EC0008A95E9F70E94B315811102C00E94BF15AF
:104ED00082E090E00E94CF2E8093640484E090E012
:104EE0000E94CF2E182F82E290E00E94CF2E982FA2
:104EF000812F9093F8058093F7050E949C0DBFEFDA
:104F0000E6E7F1E0B150E040F040E1F700C000001A
:104F10000E949C0D8091940480FF08C06FEF7FEF8A
:104F200090E080E00E94FB2E0E94E40A83E090E083
:104F30000E94CF2E0E94DE0E539A5B98559A5D9880
:104F40000E942A1682E080938E0443EA53E001EA2D
:104F5000A02E03E0B02E85019A0161E070E0D90136
:104F60008D919D01E82FE295EF70F0E0D1A08F7058
:104F70007B0101C0EE0C8A95EAF79E2D90959D214C
:104F800091A382A18E2982A3F80181918F01E82F3C
:104F9000E295EF70F0E0D1A08F707B0101C0EE0CC4
:104FA0008A95EAF79E2D90959D2191A382A18E2945
:104FB00082A3A55AB34099F68FE891E00197F1F7E3
:104FC00000C0000010918E046FE874E0FB018E2F8A
:104FD000861B811708F47DC089E192E09093EF056C
:104FE0008093EE05B8E14B2E512C1CE9612E14E0A4
:104FF000712E80912106A0E4FA2E00E112E18530A5
:1050000009F4CAC00E949C0DE5E6AE2EE4E0BE2E77
:10501000F4E98F2EF4E09F2E4DE654E0D401F50123
:10502000219131918D919D914E175F0709F4C0C078
:1050300028173907A9F3312CF401019111914F017F
:10504000D501CD90DD905D01C016D106D9F1C02605
:10505000D126212CEE24E394F12CC6018E219F2130
:10506000892B31F125962FAE259726963FAE2697B0
:1050700021E0C8018E219F21892B09F420E0279689
:105080002FAF27970E94CD058160782F29969FAF7B
:105090008EAF299725964FAD259726965FAD26971B
:1050A00027966FAD279729968FAD29970E94752176
:1050B0002394EE0CFF1CBAE02B12CFCFF5013297F0
:1050C000118300833394E4E03E12B6CF0E94C10501
:1050D0009DC0DA012D91AD01822F82958F7090E0F5
:1050E000DC0190968C9190E02F7002C09595879589
:1050F0002A95E2F78170D5019D915D01292F2295B6
:105100002F7030E0D90190962C9130E09F7002C052
:10511000359527959A95E2F790E020FD92E0892B4E
:10512000819355CF80912106843031F180E00E9437
:10513000340A0E9465071092F2050FB6F894A895FC
:10514000409260000FBEF092600083B7817F846060
:1051500083BF83B7816083BF7894889583B78E7F40
:1051600083BF0FB6F894A895809160008861809302
:105170006000109260000FBE80912006882361F0CD
:105180000E949C0DE4E9F4E081919191892B09F052
:10519000E6C46E167F06C1F780912106853009F4BA
:1051A000C1CF0E94E30E0E942F060E94340A2ACF2C
:1051B0002817390709F03FCF0E94CD058C01809157
:1051C0006204909163040817190701F18FEF8FAF04
:1051D00021968FAF219722961FAE22970E94CD0570
:1051E0008160782F24969FAF8EAF24974FAD219684
:1051F0005FAD219722966FAD229724968FAD2497AD
:105200000E947521109363040093620480918104CD
:105210008823F9F080917F0490918004009781F4B5
:105220000E94CD059093800480937F0480917E043A
:10523000282F30E0882309F45EC0C90101975FC0C0
:105240000E94B205209125023091260228173907C5
:1052500038F380912503882301F18091EA0590912C
:10526000EB050097D1F00E94B205209144053091E2
:1052700045052817390788F49091E8058091E905DC
:10528000981709F45FC00E94E12010924505109222
:1052900044051092EB051092EA058091370580FFD6
:1052A0001EC08091240382FF1AC00E94CD05209168
:1052B000400530914105AC01421B530B2091220364
:1052C000309123034217530750F022E834E041E0C5
:1052D000BC0180914205909143050E94FB1410E0AF
:1052E00000E034E0C32ED12C4DEF942E882483941B
:1052F0005CEF352EE7C080917D048150990B409181
:10530000A504442399F023593B4FD9011C9183599B
:105310009B4FFC0180810E947F0D0E941518809197
:10532000A504882319F0812F0E940E1880917E0415
:1053300090E0019660917D0470E00E94332E80938E
:105340007E0487CF0E9484201092EB051092EA051C
:105350000E947506A2CFA12EB12CF501ED55FC4F90
:105360008081E82FE295EF70F0E0E0A1F0E08F702F
:1053700002C0F595E7958A95E2F7E170D501AF5542
:10538000BC4F2C91A22FA295AF70B0E090968C915B
:1053900090E02F7002C0959587952A95E2F780FDE1
:1053A000E0C080E08E2BD501A157BB4FEC919E2F22
:1053B0009370891709F485C0EE0FEE0FE82BEC937C
:1053C000EF70F0E0EF56FC4F950124573B4F790109
:1053D0008081D9019C91890F8C9320E084308CF1DD
:1053E000F501E657FB4F80818F5F80830E94CD05DA
:1053F0001DAB3EAA8FAA8160782F99AF88AF412F4D
:105400005CEF61E089AD0E947521EFE3FFE1319728
:10541000F1F700C000000E94CD051AAF3BAE1CAEF4
:105420008160782F9EAF8DAF412F5CEF60E08EAD35
:105430000E9475218FE39FE10197F1F700C0000002
:1054400021E0D7018C918D3F8CF5F501E657FB4F9C
:105450008081815080830E94CD051BA79CA68DA6CC
:105460008160782F9FA78EA7412F5DEF61E08FA508
:105470000E947521EFE3FFE13197F1F700C00000D2
:105480000E94CD0518AB99AA1AAA8160782F9CAB0F
:105490008BAB412F5DEF60E08CA90E9475218FE3FB
:1054A0009FE10197F1F700C0000021E0D7018C9146
:1054B000082E000C990BB6010E94332EF701808351
:1054C000022B1F5F80918E04181708F444CF01113E
:1054D0000E94C1050E942F06182F80919104181771
:1054E00039F0109391040E94C105812F0E94340A63
:1054F00080912106843009F07CCD83E08093E9001F
:105500008091E80082FF75CD8091E80090E085FFF2
:1055100005C00E944804882331F191E08091E800A1
:105520008B778093E800992309F463CD0091F90407
:105530001091FA0489810115110591F18E3F09F04E
:1055400071C08A81833020F08550833008F06AC0B2
:10555000EA81EE3008F066C0F0E0E851FD4C0C94B2
:10556000692E82E01FCF00E210E09E012F5F3F4FC7
:1055700079018091E80085FD0AC08091E8008B7771
:105580008093E8000E944804882399F3C6CF809155
:10559000F100D7018D937D010150110951F7BDCF65
:1055A0008D3009F4B9C0B0F4843009F49CC040F4E3
:1055B000823041F108F088C0813001F18FEFF4C2F0
:1055C000863009F4A6C008F499C08C30B9F780E1A0
:1055D0008A8328C0813109F4FDC040F48F3009F47A
:1055E000CBC008F49DC00E94120B1CC0833109F48B
:1055F0001EC108F4F1C08E3F09F7AACF1A8289E0D4
:105600008B8310C08A81823009F4EDC2833089F126
:105610008130A1F60E94C1050E946F2E6B837C83AE
:105620008D839E8380912106843009F0E2CC109115
:10563000E9001F709091EC00892F817090FD80E847
:10564000182B82E08093E9008091E80080FF0DC074
:1056500050E040E060E270E0CE0101960E947904E3
:105660008091E8008E778093E8001F701093E90026
:10567000C0CC8091200390912103892B99F28091D5
:105680009404909195049827892798279C838B836D
:1056900080919604909197049827892798279E8354
:1056A0008D83809198049091990498278927982751
:1056B00098878F8380919A0490919B0498278927DB
:1056C00098279A878987AECF8A81823009F076CF72
:1056D0006B817C818D819E810E946F2E86E290E09D
:1056E0000E94DD2E9FCF4C816B818A810E940E0C1F
:1056F0009827892798279E838D8394CF2D813E817B
:105700003227232732274C816B818A810E94530BD9
:1057100089CF0E94FE1186CF82E08A8385E070CF18
:105720008C81C82ED12CBDE1CB16D10408F07ACFE4
:10573000EA80FB80FE24EF24FE248E010F5F1F4FC2
:10574000C00ED11EC70185509E4FC016D10609F468
:1057500069CFE5E0EE16E2E0FE0658F40E94CF2E97
:10576000D80114968C93FFEFEF1AFF0A0F5F1F4FBB
:10577000E9CFF8011482F7CF8091200390912103A3
:10578000892B09F44FCF8C81C82ED12C2DE1C21664
:10579000D10408F047CF0A811B8110270127102769
:1057A000CE0101967C01C00ED11EC80185509E4FCE
:1057B000C016D10609F436CF0530A2E01A0720F44E
:1057C000F70164810E94DD2EFFEFEF1AFF0A0F5FE1
:1057D0001F4FEBCF84E0FCCE8C81C82ED12C2DE165
:1057E000C216D10408F01ECFEA80FB80FE24EF240D
:1057F000FE248E010F5F1F4FC00ED11EC70187967A
:105800000C151D0509F40ECF30E4E31631E0F30664
:1058100058F40E94CF2ED80114968C93FFEFEF1A04
:10582000FF0A0F5F1F4FEACFF8011482F7CF8C8178
:10583000C82ED12C2DE1C216D10408F0F3CE0A8176
:105840001B81102701271027003431E0130708F0CF
:10585000E9CE20E431E0201B310B2C153D0508F486
:10586000E1CECE0101967C01C00ED11EC801879603
:10587000C016D10609F4D6CE0034A1E01A0720F4F0
:10588000F70164810E94DD2EFFEFEF1AFF0A0F5F20
:105890001F4FECCF88E0EAE4F3E0DE01919601903F
:1058A0000D928A95E1F780E2FE013196DF011D92AB
:1058B0008A95E9F785E0898388E0B096DE01159640
:1058C00001900D928A95E1F7ADCE84E2898382E062
:1058D0008A831B821C82A6CE8C81682F70E0762F73
:1058E00066278B81860F972F911D092E000CAA0B1E
:1058F000BB0B25E0880F991FAA1FBB1F2A95D1F764
:10590000AC01BD01405E5F4F6F4F7F4F4817590795
:105910006A077B0708F486CE8432E2E09E07A10581
:10592000B10508F07FCE4532F2E05F0761057105F1
:1059300020F044E252E060E070E0481B590BBC01EB
:1059400063507E4FCE0101960E94992E6BCE1B8133
:105950000C8140E0602F812F0E94D50B982789276A
:1059600098279A83898341E0602F812F0E94D50B6D
:105970009827892798279C838B8354CE2E813F813B
:1059800032272327322721158CE5380741F48091EF
:10599000200390912103892B11F430E020E041E0B5
:1059A0008D81811101C040E06C818B810E94220BAE
:1059B00039CE4EE150E06FEF70E0CE0103960E94C9
:1059C000B82E8091200389830A832CCE81E090E059
:1059D0009093FA048093F90482E390E09093930407
:1059E000809392040E94CD051DCE8091200389836F
:1059F0000A838091920404CE0B811C8140E250E026
:105A00006FEF70E0CE0101960E94B82E21E835E0DC
:105A1000A1E1B6E090E080E0AC014E5F5F4F413223
:105A2000510508F0FFCDF90165917491061717072C
:105A300050F4E1E0F0E0EC0FFD1F8E0F9F1FFC0122
:105A400071836083CA01245F3F4FA217B30721F718
:105A5000E9CD4B815C8181E895E021E136E0FC01F4
:105A6000659174914617570709F48FC00C96281753
:105A70003907A9F7A3CD8B819C8101E815E0F801D6
:105A8000259134918217930709F490C0045F1F4F4A
:105A9000F6E001311F0799F7EE24EA94FE2CA1C02D
:105AA0000E94C211BFCD8B81833069F0843049F1EF
:105AB0008111B8CD80E2FE013196DF011D928A95F9
:105AC000E9F788E085CD6C812AE0CE018196FC0162
:105AD000322F11923A95E9F7683088F4629FB0014D
